:100000000C942A000C94CC060C94F3060C941A075A
:100010000C9447000C94FF080C9447000C94470084
:100020000C9447000C9447000C9447000C94470034
:100030000C9447000C9447000C9447000C94470024
:100040000C9447000C9447000C9447000C94470014
:100050000C94470011241FBECFE5D8E0DEBFCDBF12
:1000600011E0A0E6B0E0ECEBF7E102C005900D92E4
:10007000A030B107D9F721E0A0E0B1E001C01D92A6
:10008000A031B207E1F70E9490040C94DC0B0C94B1
:10009000000080910D0190910E01019690930E0148
:1000A00080930D010895CF93DF93EA010E94E80346
:1000B000CE010E94D203DF91CF910895CF93C42F38
:1000C0000E94E8038C2F0E942304CF910895CF93C0
:1000D000DF93EA010E94E803CE010E942704DF912A
:1000E000CF9108954CE760910F0181E00E945E007E
:1000F00080910F018F5F80930F0140910C014F5F42
:1001000040930C0150E067E080E00E94670080911E
:100110000F01813118F080E180930F010895609103
:100120000F01615060930F0180910C018150809309
:100130000C0140E281E00E945E0040910C0150E021
:1001400067E080E00E94670008950F931F93CF93AC
:10015000DF931F92CDB7DEB781E00E941F0448E60F
:1001600050E060E080E00E94530060E070E08AEFC1
:1001700093E40E94080881E00E941F0441E750E0D8
:1001800060E080E00E94530040910C0150E067E085
:1001900080E00E94670048E750E06AE080E00E944B
:1001A00053000BC081E00E94E8038CE70E94230407
:1001B00080910F018F5F80930F0160910F01262FB7
:1001C00030E080910C0190E042972817390754F3F2
:1001D00060E070E88BE395E40E94AA088C0181E05E
:1001E00090E00E9433082AC0CE0101960E94C0020E
:1001F0008981813389F490910F01903168F41092D4
:100200000E0110920D010E94720060E070E088E41F
:1002100093E40E94080812C0823381F480910F0198
:10022000882361F010920E0110920D010E948F0040
:1002300060E070E088E493E40E94080889818333D9
:1002400039F080910D0190910E018017910760F2B5
:1002500080E090E00E94330814BC10920E011092CE
:100260000D014FE750E060E080E00E9453004091B4
:100270000C0150E06EE080E00E94670060E070E0FA
:100280008AE794E40E94080881E00E941F040F900E
:10029000DF91CF911F910F91089510920F0184E18A
:1002A00080930C0110920E0110920D010E941B040C
:1002B0000E94820280E00E9495040E9470020E94C7
:1002C0007C028FB780688FBF89B7806489BF0E9426
:1002D0002B0889E490E00E94FA084FE850E064E0BF
:1002E00080E00E94530060E080E690E00E940004FD
:1002F00060E070E08AE794E40E94080881E00E94D0
:100300001F0447E950E060E080E00E94530060E095
:1003100070E08AE794E40E9408080E94A50080E04B
:100320000895CF92DF92EF92FF92CF93DF9300D0A8
:1003300000D01F92CDB7DEB7BE016F5F7F4F80E068
:100340000E94A90420E030E040E951E469817A810B
:100350008B819C810E94270969837A838B839C838C
:1003600047EA50E060E080E00E945300C980DA80F4
:10037000EB80FC8020E030E040E251E4C701B601B0
:100380000E94380B0E941C0ACB016AE070E00E94B8
:10039000A50B05974CF0C701B6010E94930969832C
:1003A0007A838B839C8308C0C701B6010E948F0AA1
:1003B00069837A838B839C8369817A818B819C8119
:1003C0000E94230AAB016DE080E00E94670044EBCD
:1003D00050E060E081E00E94530040910C0150E049
:1003E0006DE081E00E94670069817A818B819C8148
:1003F0000E941C0A80910C0190E08617970744F434
:100400000E94760240E06FE080E00E945E000AC039
:10041000861797073CF00E947C0240E26FE080E084
:100420000E945E00CE0105960E94C0028D8190ED73
:10043000980F9A3028F08A3219F0833209F044C0BC
:1004400081E00E941F048D81843399F40E947C0214
:1004500041EC50E060E080E00E94530010920F01F8
:1004600060E070E08AE794E40E9408080E94A5001A
:1004700028C08533A1F40E947C0240ED50E060E08A
:1004800080E00E94530084E180930C0110920F01E0
:1004900060E070E08AE794E40E94080812C041EE30
:1004A00050E060E080E00E9453004FEE50E060E0DA
:1004B00081E00E94530060E070E08AE794E40E94CB
:1004C000080881E00E941F040F900F900F900F907A
:1004D0000F90DF91CF91FF90EF90DF90CF90089534
:1004E00041E062E483E00E94DF04089541E062E4B9
:1004F00083E00E947C05089540E062E483E00E946E
:100500007C05089541E063E482E00E94DF0441E05D
:1005100063E483E00E94DF0441E063E484E00E943E
:10052000DF0440E063E485E00E94DF0440E063E430
:1005300086E00E94DF0440E063E487E00E94DF047D
:1005400041E063E482E00E947C0541E063E483E0F3
:100550000E947C0541E063E484E00E947C0541E068
:1005600063E485E00E947C0541E063E486E00E944C
:100570007C0541E063E487E00E947C0580E008950B
:100580009F92AF92BF92CF92DF92EF92FF920F9322
:100590001F93CF93DF9300D000D000D0CDB7DEB74C
:1005A0007C0182E0898383E08A8384E08B8385E019
:1005B0008C8386E08D8387E08E8300E03CC0A02E94
:1005C000B12CE1E0F0E0EC0FFD1FEA0DFB1D908087
:1005D00040E063E4892D0E947C0510E025C0C12E17
:1005E000D12CE4E0F0E0EC0FFD1FEC0DFD1DA701A8
:1005F00063E480810E945E06F7018081811113C04F
:10060000C501880F991F8A0D9B1D89509F4FFC01C2
:10061000EC0DFD1D8081F701808363E4892D0E942C
:10062000190680E00BC01F5F1330C8F263E4892D08
:100630000E9419060F5F033010F281E026960FB674
:10064000F894DEBF0FBECDBFDF91CF911F910F9108
:10065000FF90EF90DF90CF90BF90AF909F90089564
:10066000CF93C82F8BB38F709C2F907F892B8BBB20
:100670008BB38D7F8BBB8BB38B7F8BBB8BB3886036
:100680008BBB6FE672E183E89AE30E9408088BB3A4
:10069000877F8BBB6DEC7CEC8CE49EE30E940808AA
:1006A0002BB330E1C39FC0011124922F9F70892B7F
:1006B0008BBB8BB388608BBB6FE672E183E89AE3F8
:1006C0000E9408088BB3877F8BBB60E070E080E0FE
:1006D00090E40E94080880E0CF9108958AB3826078
:1006E0008ABB8AB384608ABB8AB388608ABB8AB3B8
:1006F000806F8ABB60E070E080EA91E40E940808A5
:1007000082E00E94300388E20E9430038CE00E9465
:10071000300386E00E94300381E00E94300380E8CD
:100720000E94300380E00895CF93C82F8BB38F7061
:100730009C2F907F892B8BBB8BB382608BBB8BB341
:100740008B7F8BBB8BB388608BBB6FE672E183E8DA
:100750009AE30E9408088BB3877F8BBB6DEC7CEC1F
:100760008CE49EE30E9408082BB330E1C39FC001D4
:100770001124922F9F70892B8BBB8BB388608BBB0E
:100780006FE672E183E89AE30E9408088BB3877FE3
:100790008BBB60E070E080E090E40E94080880E09D
:1007A000CF9108950F931F93CF93DF938C01C0E0F7
:1007B000D0E003C00E9494032196F801EC0FFD1FC6
:1007C00080818111F7CFDF91CF911F910F91089513
:1007D000CF93DF9300D0CDB7DEB790E8998390EC4C
:1007E0009A83E1E0F0E0EC0FFD1FE80FF11D80813E
:1007F000860F0E9430030F900F90DF91CF910895E4
:100800000F931F93CF938C01862F90E00896880F4B
:10081000880F880F0E943003C0E007C0F801EC0F7A
:10082000F11D80810E949403CF5FC830B8F3CF914F
:100830001F910F9108950E946E0380E008950E9419
:10084000300380E008950E94940380E00895EF92C1
:10085000FF921F93CF93DF93CDB7DEB764970FB6A8
:10086000F894DEBF0FBECDBF7C01892B19F480E365
:100870000E94230410E032C0412F50E09701ADECFC
:10088000BCEC0E94B90B96958795969587959695A1
:1008900087959C01220F331F880F991F880F991F7E
:1008A000880F991F820F931F9701281B390BC901CD
:1008B000C096440F551FE1E0F0E0EC0FFD1FE40F80
:1008C000F51F9183808397010E94B90B7C01F694F8
:1008D000E794F694E794F694E7941F5FE114F1042B
:1008E00059F60FC0E12FF0E03197EE0FFF1F81E0C6
:1008F00090E08C0F9D1FE80FF91F80810E94230458
:1009000011501111EFCF80E064960FB6F894DEBF5E
:100910000FBECDBFDF91CF911F91FF90EF90089553
:100920000E944D010E949101FDCF40E061E40E94D0
:10093000DF0487B1806487B987B1806287B986B1E7
:10094000806886B986B1877F86B986B186B980E02E
:100950000895CF93DF93EB0197B18F70982B97B9E0
:1009600086B1806486B9349BFECF84B1829586952A
:100970008695837065B170E0660F771F660F771FED
:10098000682B80E090E00E94520A20E030E040EACC
:1009900050E40E94380B20E030E040E85AE30E9427
:1009A000380B2BE237E846E95EE30E94AA09688328
:1009B00079838A839B8380E0DF91CF9108956234AD
:1009C00069F118F4613441F08DC0633409F448C012
:1009D000643409F466C086C041110FC04AB321E0F7
:1009E00030E0B90102C0660F771F8A95E2F7CB01AC
:1009F000809584238ABB80E00895413009F074C05B
:100A00004AB321E030E0B90102C0660F771F8A9532
:100A1000E2F7CB01842B8ABB80E0089541110FC01F
:100A200047B321E030E0B90102C0660F771F8A9515
:100A3000E2F7CB018095842387BB80E008954130A5
:100A400009F054C047B321E030E0B90102C0660F9D
:100A5000771F8A95E2F7CB01842B87BB80E008954E
:100A600041110FC044B321E030E0B90102C0660F6C
:100A7000771F8A95E2F7CB018095842384BB80E0C1
:100A800008954130A9F544B321E030E0B90102C036
:100A9000660F771F8A95E2F7CB01842B84BB80E039
:100AA000089541110FC041B321E030E0B90102C007
:100AB000660F771F8A95E2F7CB018095842381BB6F
:100AC00080E008954130B1F441B321E030E0B90154
:100AD00002C0660F771F8A95E2F7CB01842B81BB9A
:100AE00080E0089581E0089581E0089581E008950F
:100AF00081E0089581E00895623469F118F4613469
:100B000041F08DC0633409F448C0643409F466C010
:100B100086C041110FC04BB321E030E0B90102C0E3
:100B2000660F771F8A95E2F7CB01809584238BBBF4
:100B300080E00895413009F074C04BB321E030E00B
:100B4000B90102C0660F771F8A95E2F7CB01842BAB
:100B50008BBB80E0089541110FC048B321E030E025
:100B6000B90102C0660F771F8A95E2F7CB01809525
:100B7000842388BB80E00895413009F054C048B315
:100B800021E030E0B90102C0660F771F8A95E2F7D5
:100B9000CB01842B88BB80E0089541110FC045B381
:100BA00021E030E0B90102C0660F771F8A95E2F7B5
:100BB000CB018095842385BB80E008954130A9F561
:100BC00045B321E030E0B90102C0660F771F8A9576
:100BD000E2F7CB01842B85BB80E0089541110FC063
:100BE00042B321E030E0B90102C0660F771F8A9559
:100BF000E2F7CB018095842382BB80E008954130E9
:100C0000B1F442B321E030E0B90102C0660F771FB2
:100C10008A95E2F7CB01842B82BB80E0089581E0C6
:100C2000089581E0089581E0089581E0089581E0CC
:100C300008956234B9F018F4613431F03DC0633482
:100C4000F9F0643459F138C04BB321E030E0B90118
:100C500002C0660F771F8A95E2F7CB0184278BBB12
:100C600080E0089548B321E030E0B90102C0660F8A
:100C7000771F8A95E2F7CB01842788BB80E008952F
:100C800045B321E030E0B90102C0660F771F8A95B5
:100C9000E2F7CB01842785BB80E0089542B321E0D1
:100CA00030E0B90102C0660F771F8A95E2F7CB01E9
:100CB000842782BB80E0089581E00895623411F1B9
:100CC00018F4613439F066C06334A1F1643409F476
:100CD00049C060C099B321E030E0B901082E02C0DC
:100CE000660F771F0A94E2F7292F30E02623372377
:100CF000B90102C0759567958A95E2F7FA0160839C
:100D000080E0089596B321E030E0B901082E02C0DA
:100D1000660F771F0A94E2F7292F30E02623372346
:100D2000B90102C0759567958A95E2F7FA0160836B
:100D300080E0089593B321E030E0B901082E02C0AD
:100D4000660F771F0A94E2F7292F30E02623372316
:100D5000B90102C0759567958A95E2F7FA0160833B
:100D600080E0089590B321E030E0B901082E02C080
:100D7000660F771F0A94E2F7292F30E026233723E6
:100D8000B90102C0759567958A95E2F7FA0160830B
:100D900080E0089581E008951F920F920FB60F92A0
:100DA00011242F933F934F935F936F937F938F9370
:100DB0009F93AF93BF93EF93FF93E0910401F09162
:100DC00005010995FF91EF91BF91AF919F918F918F
:100DD0007F916F915F914F913F912F910F900FBE37
:100DE0000F901F9018951F920F920FB60F9211241B
:100DF0002F933F934F935F936F937F938F939F9323
:100E0000AF93BF93EF93FF93E0910201F091030141
:100E10000995FF91EF91BF91AF919F918F917F9134
:100E20006F915F914F913F912F910F900FBE0F9057
:100E30001F9018951F920F920FB60F9211242F93A7
:100E40003F934F935F936F937F938F939F93AF9352
:100E5000BF93EF93FF93E0910001F0910101099599
:100E6000FF91EF91BF91AF919F918F917F916F9182
:100E70005F914F913F912F910F900FBE0F901F9058
:100E800018958B30910509F454C038F481309105E0
:100E9000F1F098F0089729F160C08034910559F17C
:100EA00020F40C9709F44FC058C0811521E0920737
:100EB00061F18115944099F150C083B78E7F83BF53
:100EC00083B78D7F83BF83B78B7F83BF4FC083B7CB
:100ED000816083BF83B78D7F83BF83B78B7F83BFE1
:100EE00045C083B78E7F83BF83B7826083BF83B7DC
:100EF0008B7F83BF3BC083B7816083BF83B7826032
:100F000083BF83B78B7F83BF31C083B78E7F83BF9F
:100F100083B78D7F83BF83B7846083BF27C083B7C8
:100F2000816083BF83B78D7F83BF83B7846083BFB6
:100F30001DC083B78E7F83BF83B7826083BF83B7B3
:100F4000846083BF13C083B7816083BF83B782602F
:100F500083BF83B7846083BF09C083B78E7F83BF9D
:100F600083B78D7F83BF83B78B7F83BF80E0089576
:100F7000CF92DF92EF92FF92CF93DF9300D0CDB765
:100F8000DEB71A8219822FE632E143E85AE30E9463
:100F9000380B6B017C012DEB37E346E857E30E94E9
:100FA000AA090E9493090E94230A7A8369832DEB80
:100FB00037E346E853E3C701B6010E94AA096B0173
:100FC0007C0169817A8180E090E00E94520A9B0155
:100FD000AC01C701B6010E94AA090E9493099B01B6
:100FE000AC0160E070E080E893E40E9426090E9472
:100FF000230A70930B0160930A0189819A810F90F3
:101000000F90DF91CF91FF90EF90DF90CF900895F8
:101010000F931F93CF93DF930E94B8078C01C0E01A
:10102000D0E00FC080910A0182BF81E090E00E9471
:10103000410708B600FEFDCF13BE88B7816088BFA8
:101040002196C017D10770F313BE80E0DF91CF91D6
:101050001F910F91089585B58F7E85BD85B58F7DD4
:1010600085BD80E008958B30910509F454C038F4B3
:1010700081309105F1F098F0089729F160C0803433
:10108000910559F120F40C9709F44FC058C081150F
:1010900021E0920761F18115944099F150C085B526
:1010A0008E7F85BD85B58D7F85BD85B58B7F85BDE3
:1010B0004FC085B5816085BD85B58D7F85BD85B502
:1010C0008B7F85BD45C085B58E7F85BD85B582602A
:1010D00085BD85B58B7F85BD3BC085B5816085BDF0
:1010E00085B5826085BD85B58B7F85BD31C085B5F1
:1010F0008E7F85BD85B58D7F85BD85B5846085BDB9
:1011000027C085B5816085BD85B58D7F85BD85B5D9
:10111000846085BD1DC085B5816085BD85B5826053
:1011200085BD85B58B7F85BD13C085B5816085BDC7
:1011300085B5826085BD85B5846085BD09C085B5EE
:101140008E7F85BD85B58D7F85BD85B58B7F85BD42
:1011500080E00895CF92DF92EF92FF92CF93DF93DA
:1011600000D0CDB7DEB71A8219822FE632E143E80C
:101170005AE30E94380B6B017C012DEB37E346E804
:1011800057E30E94AA090E9493090E94230A7A83C6
:1011900069832DEB37E346E853E3C701B6010E94AC
:1011A000AA096B017C0169817A8180E090E00E944C
:1011B000520A9B01AC01C701B6010E94AA090E9414
:1011C00093099B01AC0160E070E080E893E40E9429
:1011D00026090E94230A70930901609308018981FE
:1011E0009A810F900F90DF91CF91FF90EF90DF9059
:1011F000CF900895909307018093060108951F9260
:101200000F920FB60F9211242F933F934F935F933A
:101210006F937F938F939F93AF93BF93EF93FF93BE
:10122000E0910601F09107010995FF91EF91BF91BF
:10123000AF919F918F917F916F915F914F913F916E
:101240002F910F900FBE0F901F9018955058BB27ED
:10125000AA270E943E090C94E60A0E94D80A38F098
:101260000E94DF0A20F039F49F3F19F426F40C9411
:10127000D50A0EF4E095E7FB0C94A60AE92F0E942C
:10128000F70A58F3BA17620773078407950720F027
:1012900079F4A6F50C94310B0EF4E0950B2EBA2FD1
:1012A000A02D0B01B90190010C01CA01A00111246C
:1012B000FF27591B99F0593F50F4503E68F11A1618
:1012C000F040A22F232F342F4427585FF3CF4695A9
:1012D00037952795A795F0405395C9F77EF41F16CB
:1012E000BA0B620B730B840BBAF09150A1F0FF0F95
:1012F000BB1F661F771F881FC2F70EC0BA0F621F81
:10130000731F841F48F4879577956795B795F79570
:101310009E3F08F0B0CF9395880F08F09927EE0F05
:101320009795879508950E94190B90F09F3748F480
:10133000911116F40C94320B60E070E080E89FE3AA
:10134000089526F01B16611D711D811D0C94AC0AB9
:101350000C94C70A0E94BE090C94E60A0E94DF0A98
:1013600058F00E94D80A40F029F45F3F29F00C940D
:10137000A60A51110C94320B0C94D50A0E94F70A5C
:1013800068F39923B1F3552391F3951B550BBB27B4
:10139000AA2762177307840738F09F5F5F4F220FF9
:1013A000331F441FAA1FA9F335D00E2E3AF0E0E8F0
:1013B00032D091505040E695001CCAF72BD0FE2F3A
:1013C00029D0660F771F881FBB1F261737074807CE
:1013D000AB07B0E809F0BB0B802DBF01FF27935886
:1013E0005F4F3AF09E3F510578F00C94A60A0C949A
:1013F000320B5F3FE4F3983ED4F38695779567957B
:10140000B795F7959F5FC9F7880F911D96958795BA
:1014100097F90895E1E0660F771F881FBB1F6217D9
:1014200073078407BA0720F0621B730B840BBA0B97
:10143000EE1F88F7E09508950E94230A6894B11181
:101440000C94320B08950E94FF0A88F09F5798F081
:10145000B92F9927B751B0F0E1F0660F771F881FB9
:10146000991F1AF0BA95C9F714C0B13091F00E94D3
:10147000310BB1E008950C94310B672F782F88273A
:10148000B85F39F0B93FCCF3869577956795B395FA
:10149000D9F73EF490958095709561957F4F8F4F69
:1014A0009F4F0895E89409C097FB3EF4909580956E
:1014B000709561957F4F8F4F9F4F9923A9F0F92F1A
:1014C00096E9BB279395F695879577956795B79598
:1014D000F111F8CFFAF4BB0F11F460FF1BC06F5F7E
:1014E0007F4F8F4F9F4F16C0882311F096E911C090
:1014F000772321F09EE8872F762F05C0662371F0B1
:1015000096E8862F70E060E02AF09A95660F771FC4
:10151000881FDAF7880F9695879597F908950E94A6
:10152000190B90F09F3748F4911116F00C94320B80
:1015300060E070E080E89FEB089526F41B16611DC3
:10154000711D811D0C94AC0A0C94C70A97F99F6712
:1015500080E870E060E00895882371F4772321F03B
:101560009850872B762F07C0662311F499270DC05A
:101570009051862B70E060E02AF09A95660F771FF5
:10158000881FDAF7880F9695879597F908959F3FFA
:1015900031F0915020F4879577956795B795880F2E
:1015A000911D9695879597F908959FEF80EC089582
:1015B00000240A9416161706180609060895002432
:1015C0000A9412161306140605060895092E0394AC
:1015D000000C11F4882352F0BB0F40F4BF2B11F420
:1015E00060FF04C06F5F7F4F8F4F9F4F089557FD7F
:1015F0009058440F551F59F05F3F71F04795880F81
:1016000097FB991F61F09F3F79F087950895121617
:1016100013061406551FF2CF4695F1DF08C01616C3
:1016200017061806991FF1CF869571056105089474
:1016300008950E94FF0AA0F0BEE7B91788F4BB27FF
:101640009F3860F41616B11D672F782F8827985F92
:10165000F7CF869577956795B11D93959639C8F321
:101660000895E894BB2766277727CB0197F908955B
:101670000E944B0B0C94E60A0E94D80A38F00E9494
:10168000DF0A20F0952311F00C94A60A0C94D50AD9
:1016900011240C94320B0E94F70A70F3959FC1F34A
:1016A000950F50E0551F629FF001729FBB27F00D10
:1016B000B11D639FAA27F00DB11DAA1F649F662765
:1016C000B00DA11D661F829F2227B00DA11D621FB4
:1016D000739FB00DA11D621F839FA00D611D221F6E
:1016E000749F3327A00D611D231F849F600D211D52
:1016F000822F762F6A2F11249F5750409AF0F1F0D5
:1017000088234AF0EE0FFF1FBB1F661F771F881F3D
:1017100091505040A9F79E3F510580F00C94A60AC5
:101720000C94320B5F3FE4F3983ED4F386957795A3
:101730006795B795F795E7959F5FC1F7FE2B880FE3
:10174000911D9695879597F9089597FB072E16F4A6
:10175000009407D077FD09D00E94C80B07FC05D084
:101760003EF4909581959F4F0895709561957F4FB8
:101770000895A29FB001B39FC001A39F700D811D6A
:101780001124911DB29F700D811D1124911D08958A
:10179000AA1BBB1B51E107C0AA1FBB1FA617B70797
:1017A00010F0A61BB70B881F991F5A95A9F78095B3
:0C17B0009095BC01CD010895F894FFCF86
:1017BC00040E0E0E1F0004005365742054656D70EA
:1017CC00004D696E3D3138004D61783D3335005424
:1017DC00656D702073657420746F203E2020005757
:1017EC00656C636F6D650044656661756C7420543F
:1017FC00656D702032300043757272656E742020F6
:10180C0054203A0052657175697265642054203A0F
:10181C000020526561646A757374206D6F64650095
:10182C0054656D7020726573657420746F2032304E
:10183C00004F7065726174696F6E206E6F74006119
:10184C006C6C6F7765640031323334353637383928
:00000001FF
