:100000000C942A000C940A060C9431060C945806A1
:100010000C9447000C9469070C9447000C9447001B
:100020000C9447000C9447000C9447000C94470034
:100030000C9447000C9447000C9447000C94470024
:100040000C9447000C9447000C9447000C94470014
:100050000C94470011241FBECFE5D8E0DEBFCDBF12
:1000600010E0A0E6B0E0E0E9F4E102C005900D92F6
:10007000AE3DB107D9F720E0AEEDB0E001C01D9272
:10008000A83EB207E1F70E949B020C94460A0C942A
:10009000000041E064E483E00E941D0441E064E468
:1000A00084E00E941D0441E064E485E00E941D0498
:1000B00041E064E486E00E941D0440E064E480E0E6
:1000C0000E941D0440E064E481E00E941D0440E0C1
:1000D00064E482E00E941D0441E064E483E00E9445
:1000E000BA0441E064E484E00E94BA0441E064E4BC
:1000F00085E00E94BA0441E064E486E00E94BA040C
:1001000041E064E480E00E94BA0441E064E481E0FC
:100110000E94BA0441E064E482E00E94BA0480E0F4
:100120000895DF92EF92FF920F931F93CF93DF9387
:10013000CDB7DEB727970FB6F894DEBF0FBECDBFA1
:100140007C0183E0898384E08A8385E08B8386E079
:100150008C831D8281E08E8382E08F8300E07BC0F0
:10016000E1E0F0E0EC0FFD1FE00FF11DD08040E07A
:1001700064E48D2D0E94BA0410E065C0E5E0F0E073
:10018000EC0FFD1FE10FF11DA70164E480810E94C7
:100190009C05F7018081811155C0011112C0111118
:1001A00003C081E3808348C0113021F482E3F7016A
:1001B000808342C0123009F03FC083E3F70180839F
:1001C0003BC0013091F4111104C084E3F701808336
:1001D00033C0113021F485E3F70180832DC0123044
:1001E00059F586E3F701808327C0023091F411119D
:1001F00004C087E3F70180831FC0113021F488E336
:10020000F701808319C01230B9F489E3F7018083C4
:1002100013C0033089F4111104C08AE2F70180830E
:100220000BC0113021F480E3F701808305C0123048
:1002300019F483E2F701808364E48D2D0E94570551
:1002400080E00DC01F5F133008F498CF64E48D2D5B
:100250000E9457050F5F043008F482CF81E0279693
:100260000FB6F894DEBF0FBECDBFDF91CF911F91C7
:100270000F91FF90EF90DF900895CF93C82F85B333
:100280009C2F92959F70807F892B85BB8BB38B7F32
:100290008BBB8BB38D7F8BBB8BB381608BBB6FE6CE
:1002A00072E183E89AE30E9446078BB38E7F8BBB93
:1002B0006DEC7CEC8CE49EE30E94460785B3807F66
:1002C000CF70C82BC5BB8BB381608BBB6FE672E16F
:1002D00083E89AE30E9446078BB38E7F8BBB60E076
:1002E00070E080E090E40E94460780E0CF9108959E
:1002F0008AB384608ABB8AB382608ABB8AB3816016
:100300008ABB84B38F6084BB60E070E080EA91E4D4
:100310000E94460782E00E943D0188E20E943D0162
:100320008CE00E943D0186E00E943D0181E00E9438
:100330003D0180E80E943D0180E00895CF93C82FE1
:1003400085B39C2F92959F70807F892B85BB8BB343
:1003500084608BBB8BB38D7F8BBB8BB381608BBB7E
:100360006FE672E183E89AE30E9446078BB38E7FC3
:100370008BBB6DEC7CEC8CE49EE30E94460785B35E
:10038000807FCF70C82BC5BB8BB381608BBB6FE602
:1003900072E183E89AE30E9446078BB38E7F8BBBA2
:1003A00060E070E080E090E40E94460780E0CF913A
:1003B00008950F931F93CF93DF938C01C0E0D0E09B
:1003C00003C00E949E012196F801EC0FFD1F808161
:1003D0008111F7CFDF91CF911F910F910895CF93A6
:1003E000DF9300D0CDB7DEB790E8998390EC9A8385
:1003F000E1E0F0E0EC0FFD1FE80FF11D8081860FBA
:100400000E943D010F900F90DF91CF9108950F93BF
:100410001F93CF938C01862F90E00896880F880F4A
:10042000880F0E943D01C0E007C0F801EC0FF11DEC
:1004300080810E949E01CF5FC830B8F3CF911F9199
:100440000F9108950E94780180E008950E943D0177
:1004500080E008950E949E0180E00895EF92FF924F
:100460001F93CF93DF93CDB7DEB764970FB6F894A1
:10047000DEBF0FBECDBF7C01892B19F480E30E9443
:100480002A0210E032C0412F50E09701ADECBCECE5
:100490000E94230A969587959695879596958795B8
:1004A0009C01220F331F880F991F880F991F880FF7
:1004B000991F820F931F9701281B390BC901C09602
:1004C000440F551FE1E0F0E0EC0FFD1FE40FF51FB6
:1004D0009183808397010E94230A7C01F694E7941C
:1004E000F694E794F694E7941F5FE114F10459F64B
:1004F0000FC0E12FF0E03197EE0FFF1F81E090E099
:100500008C0F9D1FE80FF91F80810E942A02115055
:100510001111EFCF88E890E00E94D90180E0649645
:100520000FB6F894DEBF0FBECDBFDF91CF911F9104
:10053000FF90EF900895CF93DF9300D000D01F92EB
:10054000CDB7DEB70E9422020E94490087E00E94D8
:10055000D30364E080E00E94EF018BE890E00E940A
:10056000D90160E080E890E00E94070261E088E73E
:1005700090E00E94070262E080E790E00E9407029C
:1005800063E088E690E00E94070264E080E690E085
:100590000E94070260E070E08AE794E40E94460748
:1005A00081E00E94260285E990E00E94D90160E086
:1005B00070E08AE794E40E94460781E00E942602E8
:1005C00085EA90E00E94D90160E081E00E94EF019D
:1005D00086EB90E00E94D90160E070E08AEF93E43E
:1005E0000E94460781E00E9426020F2EF4E1EF2EC2
:1005F000F12CF02D10E060E080E00E94EF0186EC2D
:1006000090E00E94D9016CE080E00E94EF0189EC4B
:1006100090E00E94D90108C0612F81E00E94EF01A3
:100620008CE70E942A021F5F812F90E097012251E0
:1006300031098217930780F3BE016F5F7F4F87E018
:100640000E94E70320E030E040E951E469817A81CB
:100650008B819C810E94910769837A838B839C8321
:1006600062E080E00E94EF0189809A80AB80BC80CC
:1006700020E030E040E251E4C501B4010E94A2094B
:100680000E948608CB016AE070E00E940F0A05977D
:100690004CF0C501B4010E94FD0769837A838B8306
:1006A0009C8308C0C501B4010E94F90869837A835C
:1006B0008B839C8369817A818B819C810E948D08C8
:1006C000CB010E942E02CE0105960E9491008D81E1
:1006D0008533B1F481E00E9426028CEC90E00E9408
:1006E000D90160E070E08AEF93E40E94460781E060
:1006F0000E9426020F2EF4E1EF2EF12CF02D10E0D7
:100700008D818133A1F4103190F4612F81E00E943A
:10071000EF018CE70E942A021F5F8FEFE81AF80AA8
:1007200060E070E088EC92E40E94460715C08233D6
:1007300099F4112389F0115081E0E81AF108612F32
:1007400081E00E94EF0180E20E942A0260E070E0F6
:1007500080EA92E40E9446076EE080E00E94EF018A
:10076000C7010E942E02113108F010E169817A81DF
:100770008B819C810E948608E616F70640F467E0AC
:1007800080E00E94EF0180E00E942A0234CFE6164A
:10079000F70608F430CF67E080E00E94EF0180E2C6
:1007A0000E942A0228CF40E061E40E941D0487B124
:1007B000806487B987B1806287B986B1806886B95D
:1007C00086B1877F86B986B186B980E00895CF93D8
:1007D000DF93EB0197B18F70982B97B986B1806446
:1007E00086B9349BFECF84B18295869586958370B9
:1007F00065B170E0660F771F660F771F682B80E08A
:1008000090E00E94BC0820E030E040EA50E40E9402
:10081000A20920E030E040E85AE30E94A2092BE25E
:1008200037E846E95EE30E941408688379838A8387
:100830009B8380E0DF91CF910895623469F118F4D1
:10084000613441F08DC0633409F448C0643409F464
:1008500066C086C041110FC04AB321E030E0B90143
:1008600002C0660F771F8A95E2F7CB01809584233B
:100870008ABB80E00895413009F074C04AB321E09A
:1008800030E0B90102C0660F771F8A95E2F7CB010D
:10089000842B8ABB80E0089541110FC047B321E04B
:1008A00030E0B90102C0660F771F8A95E2F7CB01ED
:1008B0008095842387BB80E00895413009F054C0BF
:1008C00047B321E030E0B90102C0660F771F8A9577
:1008D000E2F7CB01842B87BB80E0089541110FC064
:1008E00044B321E030E0B90102C0660F771F8A955A
:1008F000E2F7CB018095842384BB80E008954130EA
:10090000A9F544B321E030E0B90102C0660F771FBA
:100910008A95E2F7CB01842B84BB80E008954111D6
:100920000FC041B321E030E0B90102C0660F771F6C
:100930008A95E2F7CB018095842381BB80E00895FE
:100940004130B1F441B321E030E0B90102C0660F9B
:10095000771F8A95E2F7CB01842B81BB80E0089555
:1009600081E0089581E0089581E0089581E008958F
:1009700081E00895623469F118F4613441F08DC06A
:10098000633409F448C0643409F466C086C0411178
:100990000FC04BB321E030E0B90102C0660F771FF2
:1009A0008A95E2F7CB01809584238BBB80E0089584
:1009B000413009F074C04BB321E030E0B90102C00E
:1009C000660F771F8A95E2F7CB01842B8BBB80E003
:1009D000089541110FC048B321E030E0B90102C0D1
:1009E000660F771F8A95E2F7CB018095842388BB39
:1009F00080E00895413009F054C048B321E030E070
:100A0000B90102C0660F771F8A95E2F7CB01842BEC
:100A100088BB80E0089541110FC045B321E030E06C
:100A2000B90102C0660F771F8A95E2F7CB01809566
:100A3000842385BB80E008954130A9F545B321E0CA
:100A400030E0B90102C0660F771F8A95E2F7CB014B
:100A5000842B85BB80E0089541110FC042B321E093
:100A600030E0B90102C0660F771F8A95E2F7CB012B
:100A70008095842382BB80E008954130B1F442B375
:100A800021E030E0B90102C0660F771F8A95E2F7D6
:100A9000CB01842B82BB80E0089581E0089581E042
:100AA000089581E0089581E0089581E00895623419
:100AB000B9F018F4613431F03DC06334F9F06434B6
:100AC00059F138C04BB321E030E0B90102C0660FE4
:100AD000771F8A95E2F7CB0184278BBB80E00895CE
:100AE00048B321E030E0B90102C0660F771F8A9554
:100AF000E2F7CB01842788BB80E0089545B321E06D
:100B000030E0B90102C0660F771F8A95E2F7CB018A
:100B1000842785BB80E0089542B321E030E0B9012D
:100B200002C0660F771F8A95E2F7CB01842782BB4C
:100B300080E0089581E00895623411F118F4613481
:100B400039F066C06334A1F1643409F449C060C06F
:100B500099B321E030E0B901082E02C0660F771F7B
:100B60000A94E2F7292F30E026233723B90102C087
:100B7000759567958A95E2F7FA01608380E008959C
:100B800096B321E030E0B901082E02C0660F771F4E
:100B90000A94E2F7292F30E026233723B90102C057
:100BA000759567958A95E2F7FA01608380E008956C
:100BB00093B321E030E0B901082E02C0660F771F21
:100BC0000A94E2F7292F30E026233723B90102C027
:100BD000759567958A95E2F7FA01608380E008953C
:100BE00090B321E030E0B901082E02C0660F771FF4
:100BF0000A94E2F7292F30E026233723B90102C0F7
:100C0000759567958A95E2F7FA01608380E008950B
:100C100081E008951F920F920FB60F9211242F9327
:100C20003F934F935F936F937F938F939F93AF9374
:100C3000BF93EF93FF93E091E200F091E3000995F9
:100C4000FF91EF91BF91AF919F918F917F916F91A4
:100C50005F914F913F912F910F900FBE0F901F907A
:100C600018951F920F920FB60F9211242F933F9356
:100C70004F935F936F937F938F939F93AF93BF93A4
:100C8000EF93FF93E091E000F091E1000995FF916F
:100C9000EF91BF91AF919F918F917F916F915F91F4
:100CA0004F913F912F910F900FBE0F901F9018956D
:100CB0001F920F920FB60F9211242F933F934F93D1
:100CC0005F936F937F938F939F93AF93BF93EF93B4
:100CD000FF93E091DE00F091DF000995FF91EF9125
:100CE000BF91AF919F918F917F916F915F914F9144
:100CF0003F912F910F900FBE0F901F9018958B3042
:100D0000910509F454C038F481309105F1F098F060
:100D1000089729F160C08034910559F120F40C97AF
:100D200009F44FC058C0811521E0920761F1811587
:100D3000944099F150C083B78E7F83BF83B78D7F76
:100D400083BF83B78B7F83BF4FC083B7816083BF6F
:100D500083B78D7F83BF83B78B7F83BF45C083B746
:100D60008E7F83BF83B7826083BF83B78B7F83BF50
:100D70003BC083B7816083BF83B7826083BF83B783
:100D80008B7F83BF31C083B78E7F83BF83B78D7F57
:100D900083BF83B7846083BF27C083B7816083BF6D
:100DA00083B78D7F83BF83B7846083BF1DC083B744
:100DB0008E7F83BF83B7826083BF83B7846083BF26
:100DC00013C083B7816083BF83B7826083BF83B75B
:100DD000846083BF09C083B78E7F83BF83B78D7F55
:100DE00083BF83B78B7F83BF80E00895CF92DF926C
:100DF000EF92FF92CF93DF9300D0CDB7DEB71A8288
:100E000019822FE632E143E85AE30E94A2096B01FE
:100E10007C012DEB37E346E859E30E9414080E9459
:100E2000FD070E948D087A8369832DEB37E346E83E
:100E300055E3C701B6010E9414086B017C0169816A
:100E40007A8180E090E00E94BC089B01AC01C70160
:100E5000B6010E9414080E94FD079B01AC0160E0EE
:100E600070E080E893E40E9490070E948D087093E0
:100E7000E7006093E60089819A810F900F90DF91DF
:100E8000CF91FF90EF90DF90CF9008950F931F9335
:100E9000CF93DF930E94F6068C01C0E0D0E00FC034
:100EA0008091E60082BF81E090E00E947F0608B654
:100EB00000FEFDCF13BE88B7816088BF2196C017A2
:100EC000D10770F313BE80E0DF91CF911F910F9196
:100ED00008951F920F920FB60F9211242F933F93F4
:100EE0004F935F936F937F938F939F93AF93BF9332
:100EF000EF93FF93E091E400F091E5000995FF91F5
:100F0000EF91BF91AF919F918F917F916F915F9181
:100F10004F913F912F910F900FBE0F901F901895FA
:100F20005058BB27AA270E94A8070C9450090E947A
:100F3000420938F00E94490920F039F49F3F19F422
:100F400026F40C943F090EF4E095E7FB0C9410098D
:100F5000E92F0E94610958F3BA17620773078407E3
:100F6000950720F079F4A6F50C949B090EF4E09512
:100F70000B2EBA2FA02D0B01B90190010C01CA0153
:100F8000A0011124FF27591B99F0593F50F4503EFE
:100F900068F11A16F040A22F232F342F4427585FF0
:100FA000F3CF469537952795A795F0405395C9F708
:100FB0007EF41F16BA0B620B730B840BBAF09150C0
:100FC000A1F0FF0FBB1F661F771F881FC2F70EC05F
:100FD000BA0F621F731F841F48F487957795679532
:100FE000B795F7959E3F08F0B0CF9395880F08F01E
:100FF0009927EE0F9795879508950E94830990F0A1
:101000009F3748F4911116F40C949C0960E070E04D
:1010100080E89FE3089526F01B16611D711D811D58
:101020000C9416090C9431090E9428080C9450095C
:101030000E94490958F00E94420940F029F45F3F9C
:1010400029F00C94100951110C949C090C943F093F
:101050000E94610968F39923B1F3552391F3951B1D
:10106000550BBB27AA2762177307840738F09F5FC9
:101070005F4F220F331F441FAA1FA9F335D00E2E36
:101080003AF0E0E832D091505040E695001CCAF7A3
:101090002BD0FE2F29D0660F771F881FBB1F261766
:1010A00037074807AB07B0E809F0BB0B802DBF013D
:1010B000FF2793585F4F3AF09E3F510578F00C940C
:1010C00010090C949C095F3FE4F3983ED4F3869595
:1010D00077956795B795F7959F5FC9F7880F911D2D
:1010E0009695879597F90895E1E0660F771F881F19
:1010F000BB1F621773078407BA0720F0621B730BCC
:10110000840BBA0BEE1F88F7E09508950E948D08B6
:101110006894B1110C949C0908950E94690988F0A3
:101120009F5798F0B92F9927B751B0F0E1F0660FAB
:10113000771F881F991F1AF0BA95C9F714C0B130EC
:1011400091F00E949B09B1E008950C949B09672FD0
:10115000782F8827B85F39F0B93FCCF3869577951B
:101160006795B395D9F73EF4909580957095619504
:101170007F4F8F4F9F4F0895E89409C097FB3EF42F
:1011800090958095709561957F4F8F4F9F4F9923D4
:10119000A9F0F92F96E9BB279395F6958795779552
:1011A0006795B795F111F8CFFAF4BB0F11F460FF12
:1011B0001BC06F5F7F4F8F4F9F4F16C0882311F06A
:1011C00096E911C0772321F09EE8872F762F05C07E
:1011D000662371F096E8862F70E060E02AF09A9519
:1011E000660F771F881FDAF7880F9695879597F90E
:1011F00008950E94830990F09F3748F4911116F0EA
:101200000C949C0960E070E080E89FEB089526F460
:101210001B16611D711D811D0C9416090C9431095A
:1012200097F99F6780E870E060E00895882371F483
:10123000772321F09850872B762F07C0662311F46F
:1012400099270DC09051862B70E060E02AF09A95A6
:10125000660F771F881FDAF7880F9695879597F99D
:1012600008959F3F31F0915020F4879577956795C9
:10127000B795880F911D9695879597F908959FEFDB
:1012800080EC089500240A9416161706180609061D
:10129000089500240A9412161306140605060895EC
:1012A000092E0394000C11F4882352F0BB0F40F474
:1012B000BF2B11F460FF04C06F5F7F4F8F4F9F4FB4
:1012C000089557FD9058440F551F59F05F3F71F036
:1012D0004795880F97FB991F61F09F3F79F087959D
:1012E0000895121613061406551FF2CF4695F1DF26
:1012F00008C0161617061806991FF1CF86957105B6
:101300006105089408950E946909A0F0BEE7B91725
:1013100088F4BB279F3860F41616B11D672F782F0D
:101320008827985FF7CF869577956795B11D939538
:101330009639C8F30895E894BB2766277727CB0131
:1013400097F908950E94B5090C9450090E9442092A
:1013500038F00E94490920F0952311F00C941009EF
:101360000C943F0911240C949C090E94610970F3AC
:10137000959FC1F3950F50E0551F629FF001729F3A
:10138000BB27F00DB11D639FAA27F00DB11DAA1F49
:10139000649F6627B00DA11D661F829F2227B00D96
:1013A000A11D621F739FB00DA11D621F839FA00D21
:1013B000611D221F749F3327A00D611D231F849F71
:1013C000600D211D822F762F6A2F11249F575040C8
:1013D0009AF0F1F088234AF0EE0FFF1FBB1F661F43
:1013E000771F881F91505040A9F79E3F510580F00C
:1013F0000C9410090C949C095F3FE4F3983ED4F3DD
:10140000869577956795B795F795E7959F5FC1F7AF
:10141000FE2B880F911D9695879597F9089597FB58
:10142000072E16F4009407D077FD09D00E94320AE7
:1014300007FC05D03EF4909581959F4F08957095D7
:1014400061957F4F0895A29FB001B39FC001A39FF4
:10145000700D811D1124911DB29F700D811D1124ED
:10146000911D0895AA1BBB1B51E107C0AA1FBB1FFA
:10147000A617B70710F0A61BB70B881F991F5A9520
:10148000A9F780959095BC01CD010895F894FFCF00
:10149000040E0E0E1F100008040E0E0E1F00080092
:1014A000040E0E0E1F010008040E0E0E1F00020097
:1014B000040E0E0E1F00040020200057656C636FA1
:1014C0006D6520210044656661756C742054656DFE
:1014D000702032300073657420696E697469616CC4
:1014E0002074656D70004D696E3D31382054204D7B
:1014F00061783D333500433D00523D0054656D70C9
:0E15000020726573657420746F203230000015
:00000001FF
