:100000000C942A000C94B6060C94DD060C9404079C
:100010000C9447000C94E9080C9447000C9447009A
:100020000C9447000C9447000C9447000C94470034
:100030000C9447000C9447000C9447000C94470024
:100040000C9447000C9447000C9447000C94470014
:100050000C94470011241FBECFE5D8E0DEBFCDBF12
:1000600011E0A0E6B0E0E0E9F7E102C005900D92F2
:10007000A430B107D9F721E0A4E0B1E001C01D929E
:10008000A431B207E1F70E947A040C94C60B0C94D9
:10009000000080911101909112010196909312013C
:1000A000809311010895CF93DF93EA010E94D20358
:1000B000CE010E94BC03DF91CF910895CF93C42F4E
:1000C0000E94D2038C2F0E940D04CF910895CF93EC
:1000D000DF93EA010E94D203CE010E941104DF9156
:1000E000CF9108954CE76091130181E00E945E007A
:1000F000809113018F5F80931301409110014F5F36
:100100004093100150E067E080E00E94670080911A
:100110001301813118F080E18093130108956091FB
:1001200013016150609313018091100181508093FD
:10013000100140E281E00E945E004091100150E019
:1001400067E080E00E94670008950F931F93CF93AC
:10015000DF931F92CDB7DEB781E00E94090448E625
:1001600050E060E080E00E94530060E070E08AEFC1
:1001700093E40E94F20781E00E94090441E750E005
:1001800060E080E00E9453004091100150E067E081
:1001900080E00E94670048E750E06AE080E00E944B
:1001A00053000BC081E00E94D2038CE70E940D0433
:1001B000809113018F5F8093130160911301262FAB
:1001C00030E08091100190E042972817390754F3EE
:1001D00060E070E88BE395E40E9494088C0181E074
:1001E00090E00E941D082AC0CE0101960E94AC0238
:1001F0008981813389F490911301903168F41092D0
:100200001201109211010E94720060E070E088E417
:1002100093E40E94F20712C0823381F480911301AB
:10022000882361F010921201109211010E948F0038
:1002300060E070E088E493E40E94F20789818333F0
:1002400039F080911101909112018017910760F2AD
:1002500080E090E00E941D0814BC109212011092E0
:1002600011014FE750E060E080E00E9453004091B0
:10027000100150E06EE080E00E94670060E070E0F6
:100280008AE794E40E94F20781E00E9409040F903B
:10029000DF91CF911F910F9108951092130184E186
:1002A0008093100110921201109211010E94050416
:1002B0000E94640287E00E947F048FB780688FBF2E
:1002C00089B7806489BF0E94150889E490E00E9484
:1002D000E4084FE850E064E080E00E94530060E0F2
:1002E00080E690E00E94EA0360E070E08AE794E430
:1002F0000E94F20781E00E94090447E950E060E0B3
:1003000080E00E94530060E070E08AE794E40E947D
:10031000F2070E94A50080E00895CF92DF92EF924D
:10032000FF92CF93DF9300D000D01F92CDB7DEB7FE
:10033000BE016F5F7F4F87E00E94930420E030E0B2
:1003400040E951E469817A818B819C810E94110985
:1003500069837A838B839C8347EA50E060E080E086
:100360000E945300C980DA80EB80FC8020E030E0FE
:1003700040E251E4C701B6010E94220B0E94060A26
:10038000CB016AE070E00E948F0B05974CF0C7012B
:10039000B6010E947D0969837A838B839C8308C0A0
:1003A000C701B6010E94790A69837A838B839C8393
:1003B00069817A818B819C810E940D0AAB016DE07D
:1003C00080E00E94670044EB50E060E081E00E9422
:1003D00053004091100150E06DE081E00E94670001
:1003E00069817A818B819C810E94060A809110012B
:1003F00090E08617970734F440E06FE080E00E94B9
:100400005E0008C0861797072CF040E26FE080E09E
:100410000E945E00CE0105960E94AC028D8190ED97
:10042000980F9A3028F08A3219F0833209F040C0D0
:1004300081E00E9409048D81843389F441EC50E00D
:1004400060E080E00E9453001092130160E070E0D1
:100450008AE794E40E94F2070E94A50026C0853333
:1004600091F440ED50E060E080E00E94530084E1B0
:10047000809310011092130160E070E08AE794E429
:100480000E94F20712C041EE50E060E080E00E945E
:1004900053004FEE50E060E081E00E94530060E0C6
:1004A00070E08AE794E40E94F20781E00E94090468
:1004B0000F900F900F900F900F90DF91CF91FF90C2
:1004C000EF90DF90CF90089541E064E483E00E94D4
:1004D000C90441E064E484E00E94C90441E064E4AA
:1004E00085E00E94C90441E064E486E00E94C904FA
:1004F00040E064E480E00E94C90440E064E481E0FC
:100500000E94C90440E064E482E00E94C90441E022
:1005100064E483E00E94660541E064E484E00E94B4
:10052000660541E064E485E00E94660541E064E41C
:1005300086E00E94660541E064E480E00E94660572
:1005400041E064E481E00E94660541E064E482E009
:100550000E94660580E008959F92AF92BF92CF926D
:10056000DF92EF92FF920F931F93CF93DF93CDB75C
:10057000DEB727970FB6F894DEBF0FBECDBF7C0164
:1005800083E0898384E08A8385E08B8386E08C83A3
:100590001D8281E08E8382E08F8300E03CC0A02E2C
:1005A000B12CE1E0F0E0EC0FFD1FEA0DFB1D9080A7
:1005B00040E064E4892D0E94660510E025C0C12E4C
:1005C000D12CE5E0F0E0EC0FFD1FEC0DFD1DA701C7
:1005D00064E480810E944806F7018081811113C084
:1005E000C501880F991F8A0D9B1D89509F4FFC01E3
:1005F000EC0DFD1D8081F701808364E4892D0E944C
:10060000030680E00BC01F5F1330C8F264E4892D3D
:100610000E9403060F5F043010F281E027960FB6A8
:10062000F894DEBF0FBECDBFDF91CF911F910F9128
:10063000FF90EF90DF90CF90BF90AF909F90089584
:10064000CF93C82F85B39C2F92959F70807F892B65
:1006500085BB8BB38B7F8BBB8BB38D7F8BBB8BB3FE
:1006600081608BBB6FE672E183E89AE30E94F20738
:100670008BB38E7F8BBB6DEC7CEC8CE49EE30E9495
:10068000F20785B3807FCF70C82BC5BB8BB3816069
:100690008BBB6FE672E183E89AE30E94F2078BB3AB
:1006A0008E7F8BBB60E070E080E090E40E94F207F8
:1006B00080E0CF9108958AB384608ABB8AB3826058
:1006C0008ABB8AB381608ABB84B38F6084BB60E0DD
:1006D00070E080EA91E40E94F20782E00E94200329
:1006E00088E20E9420038CE00E94200386E00E94A2
:1006F000200381E00E94200380E80E94200380E024
:100700000895CF93C82F85B39C2F92959F70807FBB
:10071000892B85BB8BB384608BBB8BB38D7F8BBBED
:100720008BB381608BBB6FE672E183E89AE30E9432
:10073000F2078BB38E7F8BBB6DEC7CEC8CE49EE37D
:100740000E94F20785B3807FCF70C82BC5BB8BB3E7
:1007500081608BBB6FE672E183E89AE30E94F20747
:100760008BB38E7F8BBB60E070E080E090E40E94F2
:10077000F20780E0CF9108950F931F93CF93DF93FB
:100780008C01C0E0D0E003C00E9481032196F801F3
:10079000EC0FFD1F80818111F7CFDF91CF911F9169
:1007A0000F910895CF93DF9300D0CDB7DEB790E8D7
:1007B000998390EC9A83E1E0F0E0EC0FFD1FE80FE5
:1007C000F11D8081860F0E9420030F900F90DF9112
:1007D000CF9108950F931F93CF938C01862F90E0B4
:1007E0000896880F880F880F0E942003C0E007C07A
:1007F000F801EC0FF11D80810E948103CF5FC830AA
:10080000B8F3CF911F910F9108950E945B0380E090
:1008100008950E94200380E008950E94810380E0F3
:100820000895EF92FF921F93CF93DF93CDB7DEB77A
:1008300064970FB6F894DEBF0FBECDBF7C01892B45
:1008400019F480E30E940D0410E032C0412F50E003
:100850009701ADECBCEC0E94A30B969587959695FD
:100860008795969587959C01220F331F880F991FB6
:10087000880F991F880F991F820F931F9701281BBC
:10088000390BC901C096440F551FE1E0F0E0EC0FB1
:10089000FD1FE40FF51F9183808397010E94A30B36
:1008A0007C01F694E794F694E794F694E7941F5F3E
:1008B000E114F10459F60FC0E12FF0E03197EE0F8B
:1008C000FF1F81E090E08C0F9D1FE80FF91F8081D2
:1008D0000E940D0411501111EFCF80E064960FB605
:1008E000F894DEBF0FBECDBFDF91CF911F91FF9077
:1008F000EF9008950E944D010E948D01FDCF40E0D0
:1009000061E40E94C90487B1806487B987B18062BD
:1009100087B986B1806886B986B1877F86B986B186
:1009200086B980E00895CF93DF93EB0197B18F7084
:10093000982B97B986B1806486B9349BFECF84B179
:10094000829586958695837065B170E0660F771FF6
:10095000660F771F682B80E090E00E943C0A20E041
:1009600030E040EA50E40E94220B20E030E040E812
:100970005AE30E94220B2BE237E846E95EE30E942D
:100980009409688379838A839B8380E0DF91CF9188
:100990000895623469F118F4613441F08DC0633414
:1009A00009F448C0643409F466C086C041110FC020
:1009B0004AB321E030E0B90102C0660F771F8A9583
:1009C000E2F7CB01809584238ABB80E00895413013
:1009D00009F074C04AB321E030E0B90102C0660FEB
:1009E000771F8A95E2F7CB01842B8ABB80E00895BC
:1009F00041110FC047B321E030E0B90102C0660FDA
:100A0000771F8A95E2F7CB018095842387BB80E02E
:100A10000895413009F054C047B321E030E0B901F6
:100A200002C0660F771F8A95E2F7CB01842B87BB44
:100A300080E0089541110FC044B321E030E0B901D6
:100A400002C0660F771F8A95E2F7CB018095842359
:100A500084BB80E008954130A9F544B321E030E043
:100A6000B90102C0660F771F8A95E2F7CB01842B8C
:100A700084BB80E0089541110FC041B321E030E014
:100A8000B90102C0660F771F8A95E2F7CB01809506
:100A9000842381BB80E008954130B1F441B321E06B
:100AA00030E0B90102C0660F771F8A95E2F7CB01EB
:100AB000842B81BB80E0089581E0089581E0089552
:100AC00081E0089581E0089581E00895623469F13C
:100AD00018F4613441F08DC0633409F448C06434C3
:100AE00009F466C086C041110FC04BB321E030E06D
:100AF000B90102C0660F771F8A95E2F7CB01809596
:100B000084238BBB80E00895413009F074C04BB35F
:100B100021E030E0B90102C0660F771F8A95E2F745
:100B2000CB01842B8BBB80E0089541110FC048B3EB
:100B300021E030E0B90102C0660F771F8A95E2F725
:100B4000CB018095842388BB80E00895413009F073
:100B500054C048B321E030E0B90102C0660F771FEE
:100B60008A95E2F7CB01842B88BB80E00895411180
:100B70000FC045B321E030E0B90102C0660F771F16
:100B80008A95E2F7CB018095842385BB80E00895A8
:100B90004130A9F545B321E030E0B90102C0660F4C
:100BA000771F8A95E2F7CB01842B85BB80E00895FF
:100BB00041110FC042B321E030E0B90102C0660F1D
:100BC000771F8A95E2F7CB018095842382BB80E072
:100BD00008954130B1F442B321E030E0B90102C0E0
:100BE000660F771F8A95E2F7CB01842B82BB80E0EA
:100BF000089581E0089581E0089581E0089581E0FD
:100C0000089581E008956234B9F018F4613431F048
:100C10003DC06334F9F0643459F138C04BB321E07E
:100C200030E0B90102C0660F771F8A95E2F7CB0169
:100C300084278BBB80E0089548B321E030E0B90100
:100C400002C0660F771F8A95E2F7CB01842788BB25
:100C500080E0089545B321E030E0B90102C0660F9D
:100C6000771F8A95E2F7CB01842785BB80E0089542
:100C700042B321E030E0B90102C0660F771F8A95C8
:100C8000E2F7CB01842782BB80E0089581E00895DC
:100C9000623411F118F4613439F066C06334A1F1A3
:100CA000643409F449C060C099B321E030E0B9016F
:100CB000082E02C0660F771F0A94E2F7292F30E052
:100CC00026233723B90102C0759567958A95E2F707
:100CD000FA01608380E0089596B321E030E0B90125
:100CE000082E02C0660F771F0A94E2F7292F30E022
:100CF00026233723B90102C0759567958A95E2F7D7
:100D0000FA01608380E0089593B321E030E0B901F7
:100D1000082E02C0660F771F0A94E2F7292F30E0F1
:100D200026233723B90102C0759567958A95E2F7A6
:100D3000FA01608380E0089590B321E030E0B901CA
:100D4000082E02C0660F771F0A94E2F7292F30E0C1
:100D500026233723B90102C0759567958A95E2F776
:100D6000FA01608380E0089581E008951F920F9258
:100D70000FB60F9211242F933F934F935F936F936E
:100D80007F938F939F93AF93BF93EF93FF93E091E4
:100D90000801F09109010995FF91EF91BF91AF9181
:100DA0009F918F917F916F915F914F913F912F9183
:100DB0000F900FBE0F901F9018951F920F920FB6B5
:100DC0000F9211242F933F934F935F936F937F93D1
:100DD0008F939F93AF93BF93EF93FF93E09106019F
:100DE000F09107010995FF91EF91BF91AF919F910C
:100DF0008F917F916F915F914F913F912F910F90C4
:100E00000FBE0F901F9018951F920F920FB60F9262
:100E100011242F933F934F935F936F937F938F93FF
:100E20009F93AF93BF93EF93FF93E0910401F091F1
:100E300005010995FF91EF91BF91AF919F918F911E
:100E40007F916F915F914F913F912F910F900FBEC6
:100E50000F901F9018958B30910509F454C038F409
:100E600081309105F1F098F0089729F160C0803445
:100E7000910559F120F40C9709F44FC058C0811521
:100E800021E0920761F18115944099F150C083B738
:100E90008E7F83BF83B78D7F83BF83B78B7F83BFF5
:100EA0004FC083B7816083BF83B78D7F83BF83B714
:100EB0008B7F83BF45C083B78E7F83BF83B782603C
:100EC00083BF83B78B7F83BF3BC083B7816083BF02
:100ED00083B7826083BF83B78B7F83BF31C083B703
:100EE0008E7F83BF83B78D7F83BF83B7846083BFCB
:100EF00027C083B7816083BF83B78D7F83BF83B7EC
:100F0000846083BF1DC083B78E7F83BF83B7826039
:100F100083BF83B7846083BF13C083B7816083BFFF
:100F200083B7826083BF83B7846083BF09C083B700
:100F30008E7F83BF83B78D7F83BF83B78B7F83BF54
:100F400080E00895CF92DF92EF92FF92CF93DF93EC
:100F500000D0CDB7DEB71A8219822FE632E143E81E
:100F60005AE30E94220B6B017C012DEB37E346E82C
:100F700059E30E9494090E947D090E940D0A7A8318
:100F800069832DEB37E346E855E3C701B6010E94BC
:100F900094096B017C0169817A8180E090E00E9474
:100FA0003C0A9B01AC01C701B6010E9494090E9452
:100FB0007D099B01AC0160E070E080E893E40E9451
:100FC00010090E940D0A70930F0160930E01898130
:100FD0009A810F900F90DF91CF91FF90EF90DF906B
:100FE000CF9008950F931F93CF93DF930E94A20792
:100FF0008C01C0E0D0E00FC080910E0182BF81E083
:1010000090E00E942B0708B600FEFDCF13BE88B704
:10101000816088BF2196C017D10770F313BE80E0AE
:10102000DF91CF911F910F91089585B58F7E85BD7A
:1010300085B58F7D85BD80E008958B30910509F4DD
:1010400054C038F481309105F1F098F0089729F1F7
:1010500060C08034910559F120F40C9709F44FC019
:1010600058C0811521E0920761F18115944099F1F2
:1010700050C085B58E7F85BD85B58D7F85BD85B515
:101080008B7F85BD4FC085B5816085BD85B58D7F62
:1010900085BD85B58B7F85BD45C085B58E7F85BDFA
:1010A00085B5826085BD85B58B7F85BD3BC085B527
:1010B000816085BD85B5826085BD85B58B7F85BD29
:1010C00031C085B58E7F85BD85B58D7F85BD85B5E4
:1010D000846085BD27C085B5816085BD85B58D7F60
:1010E00085BD85B5846085BD1DC085B5816085BD24
:1010F00085B5826085BD85B58B7F85BD13C085B5FF
:10110000816085BD85B5826085BD85B5846085BDFE
:1011100009C085B58E7F85BD85B58D7F85BD85B5BB
:101120008B7F85BD80E00895CF92DF92EF92FF9292
:10113000CF93DF9300D0CDB7DEB71A8219822FE6A6
:1011400032E143E85AE30E94220B6B017C012DEB54
:1011500037E346E859E30E9494090E947D090E9402
:101160000D0A7A8369832DEB37E346E855E3C7011F
:10117000B6010E9494096B017C0169817A8180E04B
:1011800090E00E943C0A9B01AC01C701B6010E949D
:1011900094090E947D099B01AC0160E070E080E849
:1011A00093E40E9410090E940D0A70930D01609350
:1011B0000C0189819A810F900F90DF91CF91FF9060
:1011C000EF90DF90CF90089590930B0180930A01E8
:1011D00008951F920F920FB60F9211242F933F93F1
:1011E0004F935F936F937F938F939F93AF93BF932F
:1011F000EF93FF93E0910A01F0910B010995FF91A4
:10120000EF91BF91AF919F918F917F916F915F917E
:101210004F913F912F910F900FBE0F901F901895F7
:101220005058BB27AA270E9428090C94D00A0E9474
:10123000C20A38F00E94C90A20F039F49F3F19F41D
:1012400026F40C94BF0A0EF4E095E7FB0C94900A88
:10125000E92F0E94E10A58F3BA176207730784075F
:10126000950720F079F4A6F50C941B0B0EF4E0958D
:101270000B2EBA2FA02D0B01B90190010C01CA0150
:10128000A0011124FF27591B99F0593F50F4503EFB
:1012900068F11A16F040A22F232F342F4427585FED
:1012A000F3CF469537952795A795F0405395C9F705
:1012B0007EF41F16BA0B620B730B840BBAF09150BD
:1012C000A1F0FF0FBB1F661F771F881FC2F70EC05C
:1012D000BA0F621F731F841F48F48795779567952F
:1012E000B795F7959E3F08F0B0CF9395880F08F01B
:1012F0009927EE0F9795879508950E94030B90F01C
:101300009F3748F4911116F40C941C0B60E070E0C8
:1013100080E89FE3089526F01B16611D711D811D55
:101320000C94960A0C94B10A0E94A8090C94D00A55
:101330000E94C90A58F00E94C20A40F029F45F3F97
:1013400029F00C94900A51110C941C0B0C94BF0AB8
:101350000E94E10A68F39923B1F3552391F3951B99
:10136000550BBB27AA2762177307840738F09F5FC6
:101370005F4F220F331F441FAA1FA9F335D00E2E33
:101380003AF0E0E832D091505040E695001CCAF7A0
:101390002BD0FE2F29D0660F771F881FBB1F261763
:1013A00037074807AB07B0E809F0BB0B802DBF013A
:1013B000FF2793585F4F3AF09E3F510578F00C9409
:1013C000900A0C941C0B5F3FE4F3983ED4F386958F
:1013D00077956795B795F7959F5FC9F7880F911D2A
:1013E0009695879597F90895E1E0660F771F881F16
:1013F000BB1F621773078407BA0720F0621B730BC9
:10140000840BBA0BEE1F88F7E09508950E940D0A31
:101410006894B1110C941C0B08950E94E90A88F09D
:101420009F5798F0B92F9927B751B0F0E1F0660FA8
:10143000771F881F991F1AF0BA95C9F714C0B130E9
:1014400091F00E941B0BB1E008950C941B0B672FC9
:10145000782F8827B85F39F0B93FCCF38695779518
:101460006795B395D9F73EF4909580957095619501
:101470007F4F8F4F9F4F0895E89409C097FB3EF42C
:1014800090958095709561957F4F8F4F9F4F9923D1
:10149000A9F0F92F96E9BB279395F695879577954F
:1014A0006795B795F111F8CFFAF4BB0F11F460FF0F
:1014B0001BC06F5F7F4F8F4F9F4F16C0882311F067
:1014C00096E911C0772321F09EE8872F762F05C07B
:1014D000662371F096E8862F70E060E02AF09A9516
:1014E000660F771F881FDAF7880F9695879597F90B
:1014F00008950E94030B90F09F3748F4911116F065
:101500000C941C0B60E070E080E89FEB089526F4DB
:101510001B16611D711D811D0C94960A0C94B10A55
:1015200097F99F6780E870E060E00895882371F480
:10153000772321F09850872B762F07C0662311F46C
:1015400099270DC09051862B70E060E02AF09A95A3
:10155000660F771F881FDAF7880F9695879597F99A
:1015600008959F3F31F0915020F4879577956795C6
:10157000B795880F911D9695879597F908959FEFD8
:1015800080EC089500240A9416161706180609061A
:10159000089500240A9412161306140605060895E9
:1015A000092E0394000C11F4882352F0BB0F40F471
:1015B000BF2B11F460FF04C06F5F7F4F8F4F9F4FB1
:1015C000089557FD9058440F551F59F05F3F71F033
:1015D0004795880F97FB991F61F09F3F79F087959A
:1015E0000895121613061406551FF2CF4695F1DF23
:1015F00008C0161617061806991FF1CF86957105B3
:101600006105089408950E94E90AA0F0BEE7B917A1
:1016100088F4BB279F3860F41616B11D672F782F0A
:101620008827985FF7CF869577956795B11D939535
:101630009639C8F30895E894BB2766277727CB012E
:1016400097F908950E94350B0C94D00A0E94C20AA3
:1016500038F00E94C90A20F0952311F00C94900AEA
:101660000C94BF0A11240C941C0B0E94E10A70F325
:10167000959FC1F3950F50E0551F629FF001729F37
:10168000BB27F00DB11D639FAA27F00DB11DAA1F46
:10169000649F6627B00DA11D661F829F2227B00D93
:1016A000A11D621F739FB00DA11D621F839FA00D1E
:1016B000611D221F749F3327A00D611D231F849F6E
:1016C000600D211D822F762F6A2F11249F575040C5
:1016D0009AF0F1F088234AF0EE0FFF1FBB1F661F40
:1016E000771F881F91505040A9F79E3F510580F009
:1016F0000C94900A0C941C0B5F3FE4F3983ED4F3D7
:10170000869577956795B795F795E7959F5FC1F7AC
:10171000FE2B880F911D9695879597F9089597FB55
:10172000072E16F4009407D077FD09D00E94B20B63
:1017300007FC05D03EF4909581959F4F08957095D4
:1017400061957F4F0895A29FB001B39FC001A39FF1
:10175000700D811D1124911DB29F700D811D1124EA
:10176000911D0895AA1BBB1B51E107C0AA1FBB1FF7
:10177000A617B70710F0A61BB70B881F991F5A951D
:10178000A9F780959095BC01CD010895F894FFCFFD
:10179000040E0E0E1F0004005365742054656D7016
:1017A000004D696E3D3138004D61783D3335005450
:1017B000656D702073657420746F203E2020005783
:1017C000656C636F6D650044656661756C7420546B
:1017D000656D702032300043757272656E74202022
:1017E00054203A0052657175697265642054203A3C
:1017F0000020526561646A757374206D6F646500C2
:1018000054656D7020726573657420746F2032307A
:10181000004F7065726174696F6E206E6F74006145
:101820006C6C6F7765640031323334353637383954
:041830002A30230037
:00000001FF
