:100000000C942A000C94EE060C9415070C943C07F3
:100010000C9447000C9421090C9447000C94470061
:100020000C9447000C9447000C9447000C94470034
:100030000C9447000C9447000C9447000C94470024
:100040000C9447000C9447000C9447000C94470014
:100050000C94470011241FBECFE5D8E0DEBFCDBF12
:1000600010E0A0E6B0E0E0E0F8E102C005900D92FB
:10007000A83FB107D9F721E0A8EFB0E001C01D9279
:10008000A830B207E1F70E94AB040C94FE0B0C946D
:100090000000809105019091060101969093060160
:1000A000809305010895CF93DF93EA010E94030432
:1000B000CE010E94ED03DF91CF910895CF93C42F1D
:1000C0000E9403048C2F0E943E04CF910895CF9389
:1000D000DF93EA010E940304CE010E944204DF91F3
:1000E000CF9108954CE76091070181E00E945E0086
:1000F000809107018F5F80930701409104014F5F5A
:100100004093040150E067E080E00E946700809126
:100110000701813118F080E1809307010895609113
:100120000701615060930701809104018150809321
:10013000040140E281E00E945E004091040150E031
:1001400067E080E00E94670008950F931F93CF93AC
:10015000DF931F92CDB7DEB781E00E943A0448E6F4
:1001600050E060E080E00E94530060E070E08AEFC1
:1001700093E40E942A0881E00E943A0441E750E09B
:1001800060E080E00E9453004091040150E067E08D
:1001900080E00E94670048E750E06AE080E00E944B
:1001A00053000BC081E00E9403048CE70E943E04D0
:1001B000809107018F5F8093070160910701262FCF
:1001C00030E08091040190E042972817390754F3FA
:1001D00060E070E88BE395E40E94CC088C0181E03C
:1001E00090E00E9455082AC0CE0101960E94A50207
:1001F0008981813389F490910701903168F41092DC
:100200000601109205010E94720060E070E088E42F
:1002100093E40E942A0812C0823381F4809107017E
:10022000882361F010920601109205010E948F0050
:1002300060E070E088E493E40E942A0889818333B7
:1002400039F080910501909106018017910760F2C5
:1002500080E090E00E94550814BC109206011092B4
:1002600005014FE750E060E080E00E9453004091BC
:10027000040150E06EE080E00E94670060E070E002
:100280008AE794E40E942A0881E00E943A040F90D1
:10029000DF91CF911F910F9108951092070184E192
:1002A0008093040110920601109205018FB78068B7
:1002B0008FBF89B7806489BF0E944D0889E490E0B0
:1002C0000E941C094FE850E064E080E00E94530067
:1002D00060E080E690E00E941B0460E070E08AE746
:1002E00094E40E942A0881E00E943A0447E950E021
:1002F00060E080E00E94530060E070E08AE794E4F0
:100300000E942A080E94A50080E00895CF92DF9203
:10031000EF92FF92CF93DF9300D000D01F92CDB722
:10032000DEB7BE016F5F7F4F87E00E94CB0420E005
:1003300030E040E951E469817A818B819C810E949F
:10034000490969837A838B839C8347EA50E060E0A4
:1003500080E00E945300C980DA80EB80FC8020E0BE
:1003600030E040E251E4C701B6010E945A0B0E94FE
:100370003E0ACB016AE070E00E94C70B05974CF083
:10038000C701B6010E94B50969837A838B839C8378
:1003900008C0C701B6010E94B10A69837A838B83C2
:1003A0009C8369817A818B819C810E94450AAB0183
:1003B0006DE080E00E94670044EB50E060E081E087
:1003C0000E9453004091040150E06DE081E00E94E2
:1003D000670069817A818B819C810E943E0A8091AD
:1003E000040190E08617970734F440E06FE080E066
:1003F0000E945E0008C0861797072CF040E26FE06D
:1004000080E00E945E00CE0105960E94A5028D81CB
:1004100090ED980F9A3028F08A3219F0833209F063
:1004200040C081E00E943A048D81843389F441EC1C
:1004300050E060E080E00E9453001092070160E00D
:1004400070E08AE794E40E942A080E94A50026C072
:10045000853391F440ED50E060E080E00E9453006D
:1004600084E1809304011092070160E070E08AE764
:1004700094E40E942A0812C041EE50E060E080E05F
:100480000E9453004FEE50E060E081E00E94530074
:1004900060E070E08AE794E40E942A0881E00E940C
:1004A0003A040F900F900F900F900F90DF91CF9123
:1004B000FF90EF90DF90CF90089541E064E483E0F7
:1004C0000E94010541E064E484E00E94010541E0EE
:1004D00064E485E00E94010541E064E486E00E9456
:1004E000010540E064E480E00E94010540E064E42E
:1004F00081E00E94010540E064E482E00E94010581
:1005000041E064E483E00E949E0541E064E484E00D
:100510000E949E0541E064E485E00E949E0541E062
:1005200064E486E00E949E0541E064E480E00E946D
:100530009E0541E064E481E00E949E0541E064E4A0
:1005400082E00E949E0580E00895DF92EF92FF9284
:100550000F931F93CF93DF93CDB7DEB727970FB6D7
:10056000F894DEBF0FBECDBF7C0183E0898384E0B9
:100570008A8385E08B8386E08C831D8281E08E8375
:1005800082E08F8300E07BC0E1E0F0E0EC0FFD1F34
:10059000E00FF11DD08040E064E48D2D0E949E05A7
:1005A00010E065C0E5E0F0E0EC0FFD1FE10FF11D8C
:1005B000A70164E480810E948006F7018081811197
:1005C00055C0011112C0111103C081E3808348C0DE
:1005D000113021F482E3F701808342C0123009F028
:1005E0003FC083E3F70180833BC0013091F41111D8
:1005F00004C084E3F701808333C0113021F485E324
:10060000F70180832DC0123059F586E3F70180830E
:1006100027C0023091F4111104C087E3F7018083F1
:100620001FC0113021F488E3F701808319C0123014
:10063000B9F489E3F701808313C0033089F4111101
:1006400004C08AE2F70180830BC0113021F480E3FB
:10065000F701808305C0123019F483E2F70180832B
:1006600064E48D2D0E943B0680E00DC01F5F1330B7
:1006700008F498CF64E48D2D0E943B060F5F043090
:1006800008F482CF81E027960FB6F894DEBF0FBE44
:10069000CDBFDF91CF911F910F91FF90EF90DF9031
:1006A0000895CF93C82F85B39C2F92959F70807F1C
:1006B000892B85BB8BB38B7F8BBB8BB38D7F8BBB28
:1006C0008BB381608BBB6FE672E183E89AE30E9493
:1006D0002A088BB38E7F8BBB6DEC7CEC8CE49EE3A5
:1006E0000E942A0885B3807FCF70C82BC5BB8BB30F
:1006F00081608BBB6FE672E183E89AE30E942A086F
:100700008BB38E7F8BBB60E070E080E090E40E9452
:100710002A0880E0CF9108958AB384608ABB8AB3A7
:1007200082608ABB8AB381608ABB84B38F6084BBDA
:1007300060E070E080EA91E40E942A0882E00E9472
:10074000510388E20E9451038CE00E94510386E02D
:100750000E94510381E00E94510380E80E945103EE
:1007600080E00895CF93C82F85B39C2F92959F70FA
:10077000807F892B85BB8BB384608BBB8BB38D7FD4
:100780008BBB8BB381608BBB6FE672E183E89AE32E
:100790000E942A088BB38E7F8BBB6DEC7CEC8CE4C3
:1007A0009EE30E942A0885B3807FCF70C82BC5BB0B
:1007B0008BB381608BBB6FE672E183E89AE30E94A2
:1007C0002A088BB38E7F8BBB60E070E080E090E402
:1007D0000E942A0880E0CF9108950F931F93CF9332
:1007E000DF938C01C0E0D0E003C00E94B2032196E9
:1007F000F801EC0FFD1F80818111F7CFDF91CF91C0
:100800001F910F910895CF93DF9300D0CDB7DEB73E
:1008100090E8998390EC9A83E1E0F0E0EC0FFD1F03
:10082000E80FF11D8081860F0E9451030F900F90F9
:10083000DF91CF9108950F931F93CF938C01862F53
:1008400090E00896880F880F880F0E945103C0E03F
:1008500007C0F801EC0FF11D80810E94B203CF5F49
:10086000C830B8F3CF911F910F9108950E948C0367
:1008700080E008950E94510380E008950E94B20331
:1008800080E00895EF92FF921F93CF93DF93CDB74F
:10089000DEB764970FB6F894DEBF0FBECDBF7C0104
:1008A000892B19F480E30E943E0410E032C0412FEE
:1008B00050E09701ADECBCEC0E94DB0B9695879560
:1008C00096958795969587959C01220F331F880FE3
:1008D000991F880F991F880F991F820F931F9701E7
:1008E000281B390BC901C096440F551FE1E0F0E009
:1008F000EC0FFD1FE40FF51F9183808397010E9489
:10090000DB0B7C01F694E794F694E794F694E79475
:100910001F5FE114F10459F60FC0E12FF0E03197A9
:10092000EE0FFF1F81E090E08C0F9D1FE80FF91F75
:1009300080810E943E0411501111EFCF80E0649637
:100940000FB6F894DEBF0FBECDBFDF91CF911F91E0
:10095000FF90EF9008950E9436040E945D0287E0A8
:100960000E94B7040E944D010E948601FDCF40E025
:1009700061E40E94010587B1806487B987B1806214
:1009800087B986B1806886B986B1877F86B986B116
:1009900086B980E00895CF93DF93EB0197B18F7014
:1009A000982B97B986B1806486B9349BFECF84B109
:1009B000829586958695837065B170E0660F771F86
:1009C000660F771F682B80E090E00E94740A20E099
:1009D00030E040EA50E40E945A0B20E030E040E86A
:1009E0005AE30E945A0B2BE237E846E95EE30E9485
:1009F000CC09688379838A839B8380E0DF91CF91E0
:100A00000895623469F118F4613441F08DC06334A3
:100A100009F448C0643409F466C086C041110FC0AF
:100A20004AB321E030E0B90102C0660F771F8A9512
:100A3000E2F7CB01809584238ABB80E008954130A2
:100A400009F074C04AB321E030E0B90102C0660F7A
:100A5000771F8A95E2F7CB01842B8ABB80E008954B
:100A600041110FC047B321E030E0B90102C0660F69
:100A7000771F8A95E2F7CB018095842387BB80E0BE
:100A80000895413009F054C047B321E030E0B90186
:100A900002C0660F771F8A95E2F7CB01842B87BBD4
:100AA00080E0089541110FC044B321E030E0B90166
:100AB00002C0660F771F8A95E2F7CB0180958423E9
:100AC00084BB80E008954130A9F544B321E030E0D3
:100AD000B90102C0660F771F8A95E2F7CB01842B1C
:100AE00084BB80E0089541110FC041B321E030E0A4
:100AF000B90102C0660F771F8A95E2F7CB01809596
:100B0000842381BB80E008954130B1F441B321E0FA
:100B100030E0B90102C0660F771F8A95E2F7CB017A
:100B2000842B81BB80E0089581E0089581E00895E1
:100B300081E0089581E0089581E00895623469F1CB
:100B400018F4613441F08DC0633409F448C0643452
:100B500009F466C086C041110FC04BB321E030E0FC
:100B6000B90102C0660F771F8A95E2F7CB01809525
:100B700084238BBB80E00895413009F074C04BB3EF
:100B800021E030E0B90102C0660F771F8A95E2F7D5
:100B9000CB01842B8BBB80E0089541110FC048B37B
:100BA00021E030E0B90102C0660F771F8A95E2F7B5
:100BB000CB018095842388BB80E00895413009F003
:100BC00054C048B321E030E0B90102C0660F771F7E
:100BD0008A95E2F7CB01842B88BB80E00895411110
:100BE0000FC045B321E030E0B90102C0660F771FA6
:100BF0008A95E2F7CB018095842385BB80E0089538
:100C00004130A9F545B321E030E0B90102C0660FDB
:100C1000771F8A95E2F7CB01842B85BB80E008958E
:100C200041110FC042B321E030E0B90102C0660FAC
:100C3000771F8A95E2F7CB018095842382BB80E001
:100C400008954130B1F442B321E030E0B90102C06F
:100C5000660F771F8A95E2F7CB01842B82BB80E079
:100C6000089581E0089581E0089581E0089581E08C
:100C7000089581E008956234B9F018F4613431F0D8
:100C80003DC06334F9F0643459F138C04BB321E00E
:100C900030E0B90102C0660F771F8A95E2F7CB01F9
:100CA00084278BBB80E0089548B321E030E0B90190
:100CB00002C0660F771F8A95E2F7CB01842788BBB5
:100CC00080E0089545B321E030E0B90102C0660F2D
:100CD000771F8A95E2F7CB01842785BB80E00895D2
:100CE00042B321E030E0B90102C0660F771F8A9558
:100CF000E2F7CB01842782BB80E0089581E008956C
:100D0000623411F118F4613439F066C06334A1F132
:100D1000643409F449C060C099B321E030E0B901FE
:100D2000082E02C0660F771F0A94E2F7292F30E0E1
:100D300026233723B90102C0759567958A95E2F796
:100D4000FA01608380E0089596B321E030E0B901B4
:100D5000082E02C0660F771F0A94E2F7292F30E0B1
:100D600026233723B90102C0759567958A95E2F766
:100D7000FA01608380E0089593B321E030E0B90187
:100D8000082E02C0660F771F0A94E2F7292F30E081
:100D900026233723B90102C0759567958A95E2F736
:100DA000FA01608380E0089590B321E030E0B9015A
:100DB000082E02C0660F771F0A94E2F7292F30E051
:100DC00026233723B90102C0759567958A95E2F706
:100DD000FA01608380E0089581E008951F920F92E8
:100DE0000FB60F9211242F933F934F935F936F93FE
:100DF0007F938F939F93AF93BF93EF93FF93E09174
:100E0000FC00F091FD000995FF91EF91BF91AF912A
:100E10009F918F917F916F915F914F913F912F9112
:100E20000F900FBE0F901F9018951F920F920FB644
:100E30000F9211242F933F934F935F936F937F9360
:100E40008F939F93AF93BF93EF93FF93E091FA003B
:100E5000F091FB000995FF91EF91BF91AF919F91A8
:100E60008F917F916F915F914F913F912F910F9053
:100E70000FBE0F901F9018951F920F920FB60F92F2
:100E800011242F933F934F935F936F937F938F938F
:100E90009F93AF93BF93EF93FF93E091F800F0918E
:100EA000F9000995FF91EF91BF91AF919F918F91BB
:100EB0007F916F915F914F913F912F910F900FBE56
:100EC0000F901F9018958B30910509F454C038F499
:100ED00081309105F1F098F0089729F160C08034D5
:100EE000910559F120F40C9709F44FC058C08115B1
:100EF00021E0920761F18115944099F150C083B7C8
:100F00008E7F83BF83B78D7F83BF83B78B7F83BF84
:100F10004FC083B7816083BF83B78D7F83BF83B7A3
:100F20008B7F83BF45C083B78E7F83BF83B78260CB
:100F300083BF83B78B7F83BF3BC083B7816083BF91
:100F400083B7826083BF83B78B7F83BF31C083B792
:100F50008E7F83BF83B78D7F83BF83B7846083BF5A
:100F600027C083B7816083BF83B78D7F83BF83B77B
:100F7000846083BF1DC083B78E7F83BF83B78260C9
:100F800083BF83B7846083BF13C083B7816083BF8F
:100F900083B7826083BF83B7846083BF09C083B790
:100FA0008E7F83BF83B78D7F83BF83B78B7F83BFE4
:100FB00080E00895CF92DF92EF92FF92CF93DF937C
:100FC00000D0CDB7DEB71A8219822FE632E143E8AE
:100FD0005AE30E945A0B6B017C012DEB37E346E884
:100FE00059E30E94CC090E94B5090E94450A7A8300
:100FF00069832DEB37E346E855E3C701B6010E944C
:10100000CC096B017C0169817A8180E090E00E94CB
:10101000740A9B01AC01C701B6010E94CC090E9471
:10102000B5099B01AC0160E070E080E893E40E94A8
:1010300048090E94450A7093030160930201898167
:101040009A810F900F90DF91CF91FF90EF90DF90FA
:10105000CF9008950F931F93CF93DF930E94DA07E9
:101060008C01C0E0D0E00FC08091020182BF81E01E
:1010700090E00E94630708B600FEFDCF13BE88B75C
:10108000816088BF2196C017D10770F313BE80E03E
:10109000DF91CF911F910F91089585B58F7E85BD0A
:1010A00085B58F7D85BD80E008958B30910509F46D
:1010B00054C038F481309105F1F098F0089729F187
:1010C00060C08034910559F120F40C9709F44FC0A9
:1010D00058C0811521E0920761F18115944099F182
:1010E00050C085B58E7F85BD85B58D7F85BD85B5A5
:1010F0008B7F85BD4FC085B5816085BD85B58D7FF2
:1011000085BD85B58B7F85BD45C085B58E7F85BD89
:1011100085B5826085BD85B58B7F85BD3BC085B5B6
:10112000816085BD85B5826085BD85B58B7F85BDB8
:1011300031C085B58E7F85BD85B58D7F85BD85B573
:10114000846085BD27C085B5816085BD85B58D7FEF
:1011500085BD85B5846085BD1DC085B5816085BDB3
:1011600085B5826085BD85B58B7F85BD13C085B58E
:10117000816085BD85B5826085BD85B5846085BD8E
:1011800009C085B58E7F85BD85B58D7F85BD85B54B
:101190008B7F85BD80E00895CF92DF92EF92FF9222
:1011A000CF93DF9300D0CDB7DEB71A8219822FE636
:1011B00032E143E85AE30E945A0B6B017C012DEBAC
:1011C00037E346E859E30E94CC090E94B5090E9422
:1011D000450A7A8369832DEB37E346E855E3C70177
:1011E000B6010E94CC096B017C0169817A8180E0A3
:1011F00090E00E94740A9B01AC01C701B6010E94F5
:10120000CC090E94B5099B01AC0160E070E080E868
:1012100093E40E9448090E94450A7093010160937B
:10122000000189819A810F900F90DF91CF91FF90FB
:10123000EF90DF90CF9008959093FF008093FE0091
:1012400008951F920F920FB60F9211242F933F9380
:101250004F935F936F937F938F939F93AF93BF93BE
:10126000EF93FF93E091FE00F091FF000995FF914D
:10127000EF91BF91AF919F918F917F916F915F910E
:101280004F913F912F910F900FBE0F901F90189587
:101290005058BB27AA270E9460090C94080B0E9493
:1012A000FA0A38F00E94010B20F039F49F3F19F43C
:1012B00026F40C94F70A0EF4E095E7FB0C94C80AA8
:1012C000E92F0E94190B58F3BA17620773078407B6
:1012D000950720F079F4A6F50C94530B0EF4E095E5
:1012E0000B2EBA2FA02D0B01B90190010C01CA01E0
:1012F000A0011124FF27591B99F0593F50F4503E8B
:1013000068F11A16F040A22F232F342F4427585F7C
:10131000F3CF469537952795A795F0405395C9F794
:101320007EF41F16BA0B620B730B840BBAF091504C
:10133000A1F0FF0FBB1F661F771F881FC2F70EC0EB
:10134000BA0F621F731F841F48F4879577956795BE
:10135000B795F7959E3F08F0B0CF9395880F08F0AA
:101360009927EE0F9795879508950E943B0B90F073
:101370009F3748F4911116F40C94540B60E070E020
:1013800080E89FE3089526F01B16611D711D811DE5
:101390000C94CE0A0C94E90A0E94E0090C94080B04
:1013A0000E94010B58F00E94FA0A40F029F45F3FB6
:1013B00029F00C94C80A51110C94540B0C94F70AA0
:1013C0000E94190B68F39923B1F3552391F3951BF0
:1013D000550BBB27AA2762177307840738F09F5F56
:1013E0005F4F220F331F441FAA1FA9F335D00E2EC3
:1013F0003AF0E0E832D091505040E695001CCAF730
:101400002BD0FE2F29D0660F771F881FBB1F2617F2
:1014100037074807AB07B0E809F0BB0B802DBF01C9
:10142000FF2793585F4F3AF09E3F510578F00C9498
:10143000C80A0C94540B5F3FE4F3983ED4F38695AE
:1014400077956795B795F7959F5FC9F7880F911DB9
:101450009695879597F90895E1E0660F771F881FA5
:10146000BB1F621773078407BA0720F0621B730B58
:10147000840BBA0BEE1F88F7E09508950E94450A89
:101480006894B1110C94540B08950E94210B88F0BC
:101490009F5798F0B92F9927B751B0F0E1F0660F38
:1014A000771F881F991F1AF0BA95C9F714C0B13079
:1014B00091F00E94530BB1E008950C94530B672FE9
:1014C000782F8827B85F39F0B93FCCF386957795A8
:1014D0006795B395D9F73EF4909580957095619591
:1014E0007F4F8F4F9F4F0895E89409C097FB3EF4BC
:1014F00090958095709561957F4F8F4F9F4F992361
:10150000A9F0F92F96E9BB279395F69587957795DE
:101510006795B795F111F8CFFAF4BB0F11F460FF9E
:101520001BC06F5F7F4F8F4F9F4F16C0882311F0F6
:1015300096E911C0772321F09EE8872F762F05C00A
:10154000662371F096E8862F70E060E02AF09A95A5
:10155000660F771F881FDAF7880F9695879597F99A
:1015600008950E943B0B90F09F3748F4911116F0BC
:101570000C94540B60E070E080E89FEB089526F433
:101580001B16611D711D811D0C94CE0A0C94E90A75
:1015900097F99F6780E870E060E00895882371F410
:1015A000772321F09850872B762F07C0662311F4FC
:1015B00099270DC09051862B70E060E02AF09A9533
:1015C000660F771F881FDAF7880F9695879597F92A
:1015D00008959F3F31F0915020F487957795679556
:1015E000B795880F911D9695879597F908959FEF68
:1015F00080EC089500240A941616170618060906AA
:10160000089500240A941216130614060506089578
:10161000092E0394000C11F4882352F0BB0F40F400
:10162000BF2B11F460FF04C06F5F7F4F8F4F9F4F40
:10163000089557FD9058440F551F59F05F3F71F0C2
:101640004795880F97FB991F61F09F3F79F0879529
:101650000895121613061406551FF2CF4695F1DFB2
:1016600008C0161617061806991FF1CF8695710542
:101670006105089408950E94210BA0F0BEE7B917F8
:1016800088F4BB279F3860F41616B11D672F782F9A
:101690008827985FF7CF869577956795B11D9395C5
:1016A0009639C8F30895E894BB2766277727CB01BE
:1016B00097F908950E946D0B0C94080B0E94FA0A8A
:1016C00038F00E94010B20F0952311F00C94C80A09
:1016D0000C94F70A11240C94540B0E94190B70F30C
:1016E000959FC1F3950F50E0551F629FF001729FC7
:1016F000BB27F00DB11D639FAA27F00DB11DAA1FD6
:10170000649F6627B00DA11D661F829F2227B00D22
:10171000A11D621F739FB00DA11D621F839FA00DAD
:10172000611D221F749F3327A00D611D231F849FFD
:10173000600D211D822F762F6A2F11249F57504054
:101740009AF0F1F088234AF0EE0FFF1FBB1F661FCF
:10175000771F881F91505040A9F79E3F510580F098
:101760000C94C80A0C94540B5F3FE4F3983ED4F3F6
:10177000869577956795B795F795E7959F5FC1F73C
:10178000FE2B880F911D9695879597F9089597FBE5
:10179000072E16F4009407D077FD09D00E94EA0BBB
:1017A00007FC05D03EF4909581959F4F0895709564
:1017B00061957F4F0895A29FB001B39FC001A39F81
:1017C000700D811D1124911DB29F700D811D11247A
:1017D000911D0895AA1BBB1B51E107C0AA1FBB1F87
:1017E000A617B70710F0A61BB70B881F991F5A95AD
:1017F000A9F780959095BC01CD010895F894FFCF8D
:10180000040E0E0E1F0004005365742054656D70A5
:10181000004D696E3D3138004D61783D33350054DF
:10182000656D702073657420746F203E2020005712
:10183000656C636F6D650044656661756C742054FA
:10184000656D702032300043757272656E742020B1
:1018500054203A0052657175697265642054203ACB
:101860000020526561646A757374206D6F64650051
:1018700054656D7020726573657420746F2032300A
:10188000004F7065726174696F6E206E6F740061D5
:081890006C6C6F7765640000C9
:00000001FF
